:100000000C9434000C9446000C9446000C9446006A
:100010000C9446000C9446000C9446000C94460048
:100020000C9446000C9446000C9446000C94460038
:100030000C9446000C9446000C9446000C94460028
:100040000C9446000C9446000C9475000C944600E9
:100050000C9446000C9446000C9446000C94460008
:100060000C9446000C94460011241FBECFEFD8E03C
:10007000DEBFCDBF21E0A0E0B1E001C01D92A13004
:10008000B207E1F70E949F000C94B1000C940000AD
:100090001092C50087E68093C400E0ECF0E0808118
:1000A0008D7F808388E18093C10086E08093C200C9
:1000B0000895E1ECF0E08081806880837894089571
:1000C0009091C00095FFFCCF8093C6000895809169
:1000D000C00087FFFCCF8091C60008958091C000CA
:1000E00087FF08958091C600F9CF1F920F920FB637
:1000F0000F9211242F933F934F935F936F937F93AE
:100100008F939F93AF93BF93EF93FF930E946700EA
:1001100080930001809100010E946000FF91EF91A7
:10012000BF91AF919F918F917F916F915F914F910F
:100130003F912F910F900FBE0F901F901895259A09
:100140000E9448000E946E000E94590080910001A8
:10015000813409F42D9A809100018234B9F72D98E9
:06016000F5CFF894FFCF7B
:00000001FF
